:100000000C9446000C9450000C9450000C9450003A
:100010000C9450000C9450000C9450000C94500020
:100020000C9450000C9450000C9450000C94500010
:100030000C9450000C9450000C9452000C945000FE
:100040000C9450000C9450000C9450000C945000F0
:100050000C9450000C9450000C9450000C945000E0
:100060000C9450000C9450000C9450000C945000D0
:100070000C9450000C9450000C9450000C945000C0
:100080000C9450000C9450000C94500011241FBE8E
:10009000CFEFD0E1DEBFCDBF0E9458000C947D00B1
:1000A0000C9400009BB381E089278BBB18950895C1
:1000B00081E08ABB80EE87BB84E58FBD10927A0019
:1000C0008FEF9FEF97BD86BD1DBC1CBC1EBC8FEF84
:1000D0009FE19BBD8ABD8FEF9FE499BD88BD8FEFE7
:1000E0009FEA909379008093780087B7846087BFF8
:0E00F00078948EB581608EBDFFCFF894FFCF5F
:00000001FF
